:1000000045C000004CC000005AC0000047C00000BE
:1000100045C0000043C0000041C000003FC00000D8
:100020003DC000003BC0000039C0000037C00000E8
:1000300035C0000033C0000031C000002FC00000F8
:100040002DC000002BC0000029C0000027C0000008
:1000500025C0000023C0000021C000001FC0000018
:100060001DC000001BC0000019C0000017C0000028
:1000700015C0000013C0000011C000000FC0000038
:100080000DC000000BC0000009C0000011241FBEFD
:10009000CFEFD0E1DEBFCDBF22D03FC0B1CF1F92A6
:1000A0000F920FB60F9211248F93F89480EF8BBBB1
:1000B00078948F910F900FBE0F901F9018951F92FC
:1000C0000F920FB60F9211248F93F8948FE08BBB91
:1000D00078948F910F900FBE0F901F9018958FEF0F
:1000E0008ABB1BBA11BA78949FE090936A0093E0A0
:1000F00099BF87BB84BB9AE095BB88BB82EA8FBD62
:100100008CE18EBD80E293E097BD86BD80E991E0F1
:0E0110009BBD8ABD99BD88BDFBCFF894FFCF83
:00000001FF
